:020000040800F2
:1000000000280020E1150008E5130008EB130008A4
:10001000F1130008F7130008FD13000800000000AA
:1000200000000000000000000000000003140008B1
:100030000F140008000000001B140008271400081B
:100040002916000829160008291600082916000894
:100050002916000829160008291600082916000884
:100060002916000829160008291600082916000874
:100070002916000829160008291600082916000864
:100080002916000829160008291600082916000854
:100090002916000829160008291600082916000844
:1000A0002916000829160008291600082916000834
:1000B0003514000829160008000000002916000861
:1000C00029160008000000000000000029160008A2
:1000D0000000000029160008291600080000000092
:1000E000291600082916000829160008000000003B
:1000F0000000000000000000000000000000000000
:0C01000000000000000000005FF808F1A3
:10010C0010B5054C237833B9044B13B10448AFF345
:10011C0000800123237010BD880000200000000027
:10012C000C2E000808B5034B1BB103490348AFF371
:10013C00008008BD000000008C0000200C2E000880
:10014C0080B483B000AF7860094A7B6852F82330E2
:10015C00012B06D1064A7B68002142F823100123AB
:10016C0000E0002318460C37BD4680BC704700BF2A
:10017C00D400002080B483B000AF7860044A7B6860
:10018C00012142F8231000BF0C37BD4680BC7047DC
:10019C00D400002080B582B000AF00237B6076E0F5
:1001AC003F4A7B6852F823203E497B6841F8232064
:1001BC003D4A7B6852F8232039497B6841F823205B
:1001CC004FF40051394801F015FD03461A46364BE1
:1001DC001A604FF48041354801F00CFD03461A4675
:1001EC00314B5A604FF40041304801F003FD034697
:1001FC001A462D4B9A602B4A7B6852F823202849CB
:10020C007B6851F823309A423ED1254A7B6852F8DC
:10021C00232025497B6851F823309A4234D1224A55
:10022C007B6852F8232022497B6851F823309A428C
:10023C0016D01D4A7B6852F823201D497B6841F873
:10024C002320194A7B6852F82330012B1CD1786883
:10025C00FFF790FF174A7B68642142F8231013E0E4
:10026C00144A7B6852F823305A1E12497B6841F8B5
:10027C002320104A7B6852F82330002B04DC0C4AF4
:10028C007B68002142F823107B6801337B607B681C
:10029C00022B85DD00BF00BF0837BD4680BD00BF07
:1002AC00B0000020A4000020BC0000200010014081
:1002BC00C80000200000002080B400AF064B1B6873
:1002CC00013B054A1360044B5B68013B024A5360D7
:1002DC0000BFBD4680BC70470401002080B500AF54
:1002EC00694B1B68042B00F2C38001A252F823F067
:1002FC0011030008B5030008E30300081904000803
:10030C004704000801220221604801F08AFC012206
:10031C0008215E4801F085FC012204215B4801F0B4
:10032C0080FC01221021594801F07BFC0122402164
:10033C00564801F076FC01222021544801F071FC52
:10034C00534B1A68534B1968534B1B680B44D31A05
:10035C00002B0CDD4E4B1A684E4B19684E4B1B682C
:10036C000B44D21A4C4B1B6813444B4A1360484B3A
:10037C001A68484B1968484B1B680B44D31A002B5E
:10038C0006DA444B1A68444B1B681344404A13600A
:10039C003D4B01221A603E4B1B68404A13603E4B9A
:1003AC001B683E4A53606CE001F084F83B4B5B6881
:1003BC00002B06DC344B02221A60364B1B68374A82
:1003CC0053600020FFF7BCFE0346002B52D02E4B8F
:1003DC000A221A604EE001F091F8304B1B68002B9A
:1003EC000ADC294B03221A602B4B1B682B4A136027
:1003FC00274B1B68294A53600020FFF7A1FE0346D8
:10040C00002B39D0204B0A221A6035E001F09AF803
:10041C00224B1B68002B06DC1B4B04221A601D4B65
:10042C001B681E4A13600020FFF78AFE0346002B50
:10043C0024D0154B0A221A6020E001F0A7F8174BC4
:10044C001B68002B0ADC104B01221A60104B1B6836
:10045C00124A1360104B1B68104A53600020FFF7C0
:10046C006FFE0346002B0BD0074B0A221A6007E0E5
:10047C0000BF06E000BF04E000BF02E000BF00E0E8
:10048C0000BF00BF80BD00BFF0000020000801408D
:10049C000C0000201400002010000020040100209B
:1004AC0080B500AF904B1B680A3B032B00F2138105
:1004BC0001A252F823F000BFD5040008190500086A
:1004CC00B30500084B06000801220221874801F001
:1004DC00A8FB01220821854801F0A3FB012204217D
:1004EC00824801F09EFB01221021804801F099FB0B
:1004FC00012240217D4801F094FB012220217B4800
:10050C0001F08FFB784B0B221A60EBE0784B1B68E9
:10051C00784A1360774B01225A600221734801F02C
:10052C0098FB01220821714801F07BFB0122042178
:10053C006E4801F076FB10216C4801F08AFB012219
:10054C0040216A4801F06DFB01222021674801F02F
:10055C0068FB674B1B68632B02DD654B00221A603E
:10056C000020FFF7EDFD0346002B02D05E4B0C2262
:10057C001A600120FFF7E4FD0346002B04D05C4B0E
:10058C001B6801335A4A13600220FFF7D9FD03465A
:10059C00002B00F0A280564B1B68574A1360544B3B
:1005AC0000221A6099E0554B1B68524A1360514B5C
:1005BC0002225A60012202214C4801F032FB082130
:1005CC004A4801F046FB01220421484801F029FB6E
:1005DC0001221021454801F024FB4021434801F041
:1005EC0038FB01222021414801F01BFB434B1B68C7
:1005FC00632B02DD414B00221A600020FFF7A0FDA7
:10060C000346002B02D0384B0D221A600120FFF755
:10061C0097FD0346002B04D0384B1B680133374A37
:10062C0013600220FFF78CFD0346002B57D0334B91
:10063C001B68334A1360314B00221A604FE0314B78
:10064C001B682C4A13602B4B03225A600122022197
:10065C00264801F0E6FA01220821244801F0E1FACB
:10066C000421224801F0F5FA012210211F4801F063
:10067C00D8FA012240211D4801F0D3FA20211B4851
:10068C0001F0E7FA1F4B1B68632B02DD1D4B0022A8
:10069C001A600020FFF754FD0346002B02D0124BCA
:1006AC0000221A600120FFF74BFD0346002B04D0FB
:1006BC00144B1B680133134A13600220FFF740FDF3
:1006CC000346002B0DD00F4B1B680F4A13600D4BCC
:1006DC0000221A6005E000BF04E000BF02E000BF8A
:1006EC0000E000BF00BF80BDF0000020000801400A
:1006FC00E0000020040100200C000020E400002099
:10070C0010000020E80000201400002080B582B00A
:10071C0000AF786001228021C04801F082FA0122EA
:10072C004FF48071BD4801F07CFA01224FF4007146
:10073C00BA4801F076FA01224FF48061B74801F013
:10074C0070FA01224FF40061B44801F06AFA0122F8
:10075C004FF48051B14801F064FA01224FF400517A
:10076C00AE4801F05EFA7B68002B22D1002280217A
:10077C00AA4801F056FA00224FF48071A74801F004
:10078C0050FA00224FF40071A44801F04AFA0022FA
:10079C004FF48061A14801F044FA00224FF400614B
:1007AC009E4801F03EFA00224FF480519B4801F024
:1007BC0038FA7B68012B0BD100224FF480719748DB
:1007CC0001F02FFA00224FF40071944801F029FA3D
:1007DC007B68022B1CD100228021904801F021FA69
:1007EC0000224FF480718D4801F01BFA00224FF467
:1007FC0080618A4801F015FA00224FF400618748A5
:10080C0001F00FFA00224FF40051844801F009FA6C
:10081C007B68032B1CD100228021804801F001FA57
:10082C0000224FF480717D4801F0FBF900224FF457
:10083C0000717A4801F0F5F900224FF48061774895
:10084C0001F0EFF900224FF40051744801F0E9F97E
:10085C007B68042B17D100224FF480716F4801F094
:10086C00E0F900224FF400716C4801F0DAF9002233
:10087C004FF48051694801F0D4F900224FF4005133
:10088C00664801F0CEF97B68052B1CD10022802133
:10089C00624801F0C6F900224FF400715F4801F084
:1008AC00C0F900224FF480615C4801F0BAF90022D3
:1008BC004FF48051594801F0B4F900224FF4005123
:1008CC00564801F0AEF97B68062B22D1002280211C
:1008DC00524801F0A6F900224FF400714F4801F084
:1008EC00A0F900224FF480614C4801F09AF90022E3
:1008FC004FF40061494801F094F900224FF4805103
:10090C00464801F08EF900224FF40051434801F0A3
:10091C0088F97B68072B17D101224FF480613F487F
:10092C0001F07FF901224FF400613C4801F079F9A4
:10093C0001224FF48051394801F073F901224FF430
:10094C000051364801F06DF97B68072B10D100225D
:10095C008021324801F065F900224FF480712F4854
:10096C0001F05FF900224FF400712C4801F059F9A5
:10097C007B68082B28D100228021284801F051F9EE
:10098C0000224FF48071254801F04BF900224FF4FE
:10099C000071224801F045F900224FF480611F4894
:1009AC0001F03FF900224FF400611C4801F039F9C5
:1009BC0000224FF48051194801F033F900224FF412
:1009CC000051164801F02DF97B68092B22D1002229
:1009DC008021124801F025F900224FF480710F4854
:1009EC0001F01FF900224FF400710C4801F019F9C5
:1009FC0000224FF48061094801F013F900224FF4F2
:100A0C008051064801F00DF900224FF400510348C3
:100A1C0001F007F900BF0837BD4680BD0008014052
:100A2C0080B582B000AF786001224FF48041B048AD
:100A3C0001F0F7F801224FF40041AD4801F0F1F854
:100A4C0001220821AB4801F0ECF801221021A94841
:100A5C0001F0E7F801222021A64801F0E2F801227A
:100A6C004021A44801F0DDF801228021A14801F0C9
:100A7C00D8F87B68002B1FD100224FF480419C4892
:100A8C0001F0CFF800224FF40041994801F0C9F869
:100A9C0000220821974801F0C4F800221021954843
:100AAC0001F0BFF800222021924801F0BAF8002290
:100ABC004021904801F0B5F87B68012B0AD1002247
:100ACC004FF400418A4801F0ACF800220821894813
:100ADC0001F0A7F87B68022B1AD100224FF4804159
:100AEC00834801F09EF800224FF40041804801F049
:100AFC0098F8002210217F4801F093F80022202161
:100B0C007C4801F08EF8002280217A4801F089F8A7
:100B1C007B68032B1AD100224FF48041744801F0FA
:100B2C0080F800224FF40041714801F07AF800225D
:100B3C000821704801F075F8002210216D4801F071
:100B4C0070F8002280216B4801F06BF87B68042B55
:100B5C0014D100224FF40041654801F062F80022E4
:100B6C000821644801F05DF800224021614801F041
:100B7C0058F8002280215F4801F053F87B68052B60
:100B8C0019D100224FF48041594801F04AF8002253
:100B9C000821584801F045F800221021554801F071
:100BAC0040F800224021534801F03BF800228021FC
:100BBC00504801F036F87B68062B1ED100224FF40A
:100BCC0080414B4801F02DF800220821494801F0E2
:100BDC0028F800221021474801F023F80022202198
:100BEC00444801F01EF800224021424801F019F857
:100BFC00002280213F4801F014F87B68072B13D1A9
:100C0C00012210213B4801F00CF801222021394827
:100C1C0001F007F801224021364801F002F80122C8
:100C2C008021344800F0FDFF7B68072B10D1002297
:100C3C004FF480412E4800F0F4FF00224FF40041A5
:100C4C002B4800F0EEFF002208212A4800F0E9FFB3
:100C5C007B68082B24D100224FF48041244800F0FB
:100C6C00E0FF00224FF40041214800F0DAFF00229F
:100C7C000821204800F0D5FF002210211D4800F06B
:100C8C00D0FF002220211B4800F0CBFF0022402186
:100C9C00184800F0C6FF00228021164800F0C1FF62
:100CAC007B68092B1FD100224FF48041104800F0C3
:100CBC00B8FF00224FF400410D4800F0B2FF0022B3
:100CCC0008210C4800F0ADFF00221021094800F06B
:100CDC00A8FF00224021074800F0A3FF002280213A
:100CEC00044800F09EFF00BF0837BD4680BD00BF22
:100CFC0000080140000C014080B500AF354B1B686B
:100D0C00002B02D0012B31D061E000224FF4807116
:100D1C00314800F086FF01224FF400712E4800F09C
:100D2C0080FF2C4B1B682D4A52F823302C4A82FB37
:100D3C0003129210DB17D31A1846FFF7E7FC254B6A
:100D4C001B68264A52F82320254B83FB021399106B
:100D5C00D317C91A0B469B000B445B00D11A0846EB
:100D6C00FFF75EFE1B4B01221A6030E001224FF4AC
:100D7C008071194800F055FF00224FF4007116489D
:100D8C0000F04FFF134B1B68144A52F82330144ADF
:100D9C0082FB03129210DB17D31A1846FFF7B6FC2E
:100DAC000C4B1B680D4A52F823200D4B83FB02138E
:100DBC009910D317C91A0B469B000B445B00D11A30
:100DCC000846FFF72DFE034B00221A6000BF00BF40
:100DDC0080BD00BFEC000020000C0140040100208D
:100DEC006766666680B500AF00F01AFC00F038F854
:100DFC0000F0BEF800F070F8134801F06FFB00F043
:100E0C003BF901224FF48071104800F00AFF0122D7
:100E1C004FF400710D4800F004FF642264210C486B
:100E2C0000F0AEF9012200210A4800F0A9F91922BC
:100E3C000021094800F0A4F932220521074800F0EE
:100E4C009FF900F047FAFCE70C010020000C014070
:100E5C00C5020008E9020008AD040008050D0008F1
:100E6C0080B590B000AF07F1180328220021184676
:100E7C0001F0FAFE3B1D00221A605A609A60DA609B
:100E8C001A610223BB610123BB621023FB620023A6
:100E9C007B6307F11803184600F0F4FE0346002BA1
:100EAC0001D000F0E3F80F237B600023BB6000232C
:100EBC00FB6000233B6100237B613B1D0021184636
:100ECC0001F060F90346002B01D000F0CFF800BF11
:100EDC004037BD4680BD000080B586B000AF07F13D
:100EEC00080300221A605A609A60DA603B460022BE
:100EFC001A605A601D4B4FF080421A601B4B41F632
:100F0C003F725A60194B00229A60184B0922DA6022
:100F1C00164B00221A61154B00229A61134801F0FE
:100F2C008DFA0346002B01D000F0A0F84FF480534B
:100F3C00BB6007F1080319460C4801F00BFC034693
:100F4C00002B01D000F092F800233B6000237B6063
:100F5C003B461946054801F0E3FD0346002B01D042
:100F6C0000F084F800BF1837BD4680BD0C0100208E
:100F7C0080B588B000AF07F1100300221A605A60E8
:100F8C009A60DA602F4B9B692E4A43F010039361F1
:100F9C002C4B9B6903F01003FB60FB68294B9B698E
:100FAC00284A43F004039361264B9B6903F0040326
:100FBC00BB60BB68234B9B69224A43F008039361D7
:100FCC00204B9B6903F008037B607B6800224FF683
:100FDC00FE711D4800F025FE00224FF47E711B4867
:100FEC0000F01FFE4FF460433B6100237B61002344
:100FFC00BB6107F110031946154800F081FC4FF650
:10100C00FE733B6101237B610023BB610223FB6107
:10101C0007F1100319460C4800F072FC4FF47E7374
:10102C003B6101237B610023BB610223FB6107F160
:10103C0010031946054800F063FC00BF2037BD467D
:10104C0080BD00BF0010024000080140000C0140B0
:10105C000010014080B582B000AF786000F01AF843
:10106C00FFF798F800BF0837BD4680BD80B400AFCD
:10107C0072B600BFFEE7000080B400AF044B002244
:10108C001A60034B00225A6000BFBD4680BC7047FB
:10109C005401002080B400AF084B5B68002B09D0D2
:1010AC00064B1B689B68002B04D0044B1B689A688A
:1010BC00013A9A6000BFBD4680BC704754010020C5
:1010CC0080B487B000AF78602C4B5B681F2B01DDC0
:1010DC0001234DE0294B5B68002B09D1274A7B6823
:1010EC001360264B5B680133244A536000233FE0B6
:1010FC00224B1B687B6100233B610023FB6033E0C8
:10110C007B69002B12D07B689A687B699B689A423A
:10111C000CD37B689A687B699B68D21A7B689A604F
:10112C007B693B617B691B697B611DE07B687A692C
:10113C001A613B69002B03D03B697A681A6102E0A3
:10114C000E4A7B6813607B69002B06D07B699A681A
:10115C007B689B68D21A7B699A60084B5B68013389
:10116C00064A53600123FB60FB68002BC8D00023A8
:10117C0018461C37BD4680BC704700BF5401002088
:10118C0080B586B000AFF860B9607A60142001F0C9
:10119C005BFD03467B617B69BA689A607B697A6800
:1011AC00DA600B4B1B680133094A1360084B1B6850
:1011BC00DAB27B695A607B69FA681A607B69002233
:1011CC001A617869FFF77CFF00BF1837BD4680BDF8
:1011DC00F400002080B584B000AF78603C4B5B68B5
:1011EC00002B70D03A4B1B68FB600023BB6066E0A1
:1011FC00FB685B687A689A425CD1BB68002B11D1A2
:10120C00FB681B69002B0DD1F86801F025FD304BF4
:10121C0000221A602E4B5B68013B2D4A5360002361
:10122C00FB604CE0BB68002B17D1FB681B6999680D
:10123C00FB689A68FB681B690A449A60FB681B6927
:10124C00234A1360F86801F007FD214B5B68013BF2
:10125C001F4A53600023FB6031E0FB681B69002BC5
:10126C000DD1F86801F0F8FCBB6800221A61184B2C
:10127C005B68013B164A53600023FB601FE0FB6870
:10128C001B699968FB689A68FB681B690A449A6039
:10129C00FB681A69BB681A61FB6800221A61F8685E
:1012AC0001F0DAFC0A4B5B68013B094A53600023EE
:1012BC00FB6004E0FB68BB60FB681B69FB60FB68C0
:1012CC00002B95D100E000BF1037BD4680BD00BF9C
:1012DC005401002080B500AF1AE0134B1B681B684B
:1012EC009847114B1B68DB68002B0BD00E4B1B680F
:1012FC0018680D4B1B68D9680B4B1B68DB681A46CA
:10130C00FFF73EFF084B1B685B681846FFF762FF50
:10131C00054B5B68002B04D0034B1B689B68002BB0
:10132C00DBD000BF80BD00BF5401002080B485B06D
:10133C0000AF154B9B69144A43F001039361124BA8
:10134C009B6903F00103BB60BB680F4BDB690E4A62
:10135C0043F08053D3610C4BDB6903F080537B600B
:10136C007B680A4B5B68FB60FB6823F0E063FB6007
:10137C00FB6843F08063FB60044AFB68536000BF6A
:10138C001437BD4680BC704700100240000001407D
:10139C0080B584B000AF78607B681B68B3F1804F78
:1013AC0013D10C4BDB690B4A43F00103D361094B9E
:1013BC00DB6903F00103FB60FB68002200211C20A9
:1013CC0000F067FA1C2000F080FA00BF1037BD4611
:1013DC0080BD00BF0010024080B400AFFEE780B4B7
:1013EC0000AFFEE780B400AFFEE780B400AFFEE7CD
:1013FC0080B400AFFEE780B400AF00BFBD4680BC38
:10140C00704780B400AF00BFBD4680BC704780B44D
:10141C0000AF00BFBD4680BC704780B500AF00F088
:10142C0045F900BF80BD000080B500AF024801F057
:10143C00A1F800BF80BD00BF0C01002080B586B0B4
:10144C0000AF7860144A154BD31A7B617B693B6102
:10145C00134B1B68002B02D1114B124A1A60104B14
:10146C001A687B6813443A699A4207D201F0C2FBAE
:10147C0003460C221A604FF0FF3309E0084B1B683F
:10148C00FB60074B1A687B681344054A1360FB68C2
:10149C0018461837BD4680BD002800200004000007
:1014AC00F80000207001002080B400AF00BFBD46E2
:1014BC0080BC704780B500AF002202210E4800F0BE
:1014CC00B0FB012204210C4800F0ABFB01220821E7
:1014DC00094800F0A6FB01221021074800F0A1FBEF
:1014EC0001222021044800F09CFB002240210248EC
:1014FC0000F097FB00BF80BD0008014080B500AF35
:10150C00002202210E4800F08CFB012204210C4821
:10151C0000F087FB01220821094800F082FB012220
:10152C001021074800F07DFB00222021044800F028
:10153C0078FB01224021024800F073FB00BF80BD04
:10154C000008014080B500AF012202210E4800F0D6
:10155C0068FB012204210C4800F063FB00220821E7
:10156C00094800F05EFB00221021074800F059FBEF
:10157C0001222021044800F054FB012240210248A2
:10158C0000F04FFB00BF80BD0008014080B500AFEC
:10159C00012202210E4800F044FB002204210C48D9
:1015AC0000F03FFB01220821094800F03AFB002221
:1015BC001021074800F035FB01222021044800F0DF
:1015CC0030FB01224021024800F02BFB00BF80BD04
:1015DC0000080140FFF768FF0B480C490C4A002338
:1015EC0002E0D458C4500433C4188C42F9D3094ACD
:1015FC00094C002301E013600432A242FBD301F03A
:10160C00FFFAFFF7EFFB7047000000208800002076
:10161C00502E00088800002070010020FEE700001A
:10162C0080B500AF084B1B68074A43F010031360EA
:10163C00032000F023F90F2000F008F8FFF776FEE6
:10164C000023184680BD00BF0020024080B582B048
:10165C0000AF7860124B1A68124B1B7819464FF486
:10166C007A73B3FBF1F3B2FBF3F3184600F03BF9DA
:10167C000346002B01D001230EE07B680F2B0AD808
:10168C00002279684FF0FF3000F003F9064A7B68BE
:10169C001360002300E0012318460837BD4680BDC7
:1016AC0018000020200000201C00002080B400AF97
:1016BC00054B1B781A46054B1B681344034A1360F1
:1016CC0000BFBD4680BC7047200000205C0100209C
:1016DC0080B400AF024B1B681846BD4680BC7047F7
:1016EC005C01002080B485B000AF78607B6803F0AB
:1016FC000703FB600C4BDB68BB60BA684FF6FF035B
:10170C001340BB60FB681A02BB68134343F0BF6312
:10171C0043F40033BB60044ABB68D36000BF14378A
:10172C00BD4680BC704700BF00ED00E080B400AF48
:10173C00044BDB681B0A03F007031846BD4680BC4C
:10174C00704700BF00ED00E080B483B000AF0346EB
:10175C00FB7197F90730002B0BDBFB7903F01F02B1
:10176C00064997F907305B09012000FA02F241F8AB
:10177C00232000BF0C37BD4680BC704700E100E061
:10178C0080B483B000AF03463960FB7197F9073022
:10179C00002B0ADB3B68DAB20C4997F907301201CF
:1017AC00D2B20B4483F800230AE03B68DAB2084952
:1017BC00FB7903F00F03043B1201D2B20B441A76EF
:1017CC0000BF0C37BD4680BC704700BF00E100E095
:1017DC0000ED00E080B489B000AFF860B9607A60C9
:1017EC00FB6803F00703FB61FB69C3F10703042BE0
:1017FC0028BF0423BB61FB690433062B02D9FB69A8
:10180C00033B00E000237B614FF0FF32BB6902FA1F
:10181C0003F3DA43BB681A407B699A404FF0FF31FF
:10182C007B6901FA03F3D9437B680B4013431846D9
:10183C002437BD4680BC704780B582B000AF78605D
:10184C007B68013BB3F1807F01D301230FE00A4A8F
:10185C007B68013B53600F214FF0FF30FFF790FF87
:10186C00054B00229A60044B07221A60002318468D
:10187C000837BD4680BD00BF10E000E080B582B0E7
:10188C0000AF78607868FFF72DFF00BF0837BD46C2
:10189C0080BD80B586B000AF0346B9607A60FB733B
:1018AC0000237B61FFF742FF78617A68B968786939
:1018BC00FFF790FF024697F90F3011461846FFF7D5
:1018CC005FFF00BF1837BD4680BD80B582B000AF4A
:1018DC000346FB7197F907301846FFF735FF00BF39
:1018EC000837BD4680BD80B582B000AF786078689F
:1018FC00FFF7A2FF034618460837BD4680BD00001F
:10190C0080B48BB000AF7860396000237B62002319
:10191C003B6248E101227B6A02FA03F3FB613B68FC
:10192C001B68FA691340BB61BA69FB699A4240F0C3
:10193C0037813B685B68A34A93425ED0A14A9342CD
:10194C0075D8A14A934258D09F4A93426FD89F4A68
:10195C00934252D09D4A934269D89D4A93424CD0AF
:10196C009B4A934263D89B4A934246D0994A9342EE
:10197C005DD8122B2AD8122B59D801A252F823F079
:10198C00071A0008E1190008F3190008351A0008B5
:10199C003B1A00083B1A00083B1A00083B1A0008C7
:1019AC003B1A00083B1A00083B1A00083B1A0008B7
:1019BC003B1A00083B1A00083B1A00083B1A0008A7
:1019CC003B1A0008E9190008FD190008824A9342E5
:1019DC0013D02CE03B68DB683B6229E03B68DB689A
:1019EC0004333B6224E03B68DB6808333B621FE056
:1019FC003B68DB680C333B621AE03B689B68002B4E
:101A0C0002D104233B6213E03B689B68012B05D198
:101A1C0008233B627B68FA691A6109E008233B6280
:101A2C007B68FA695A6103E000233B6200E000BF67
:101A3C00BB69FF2B01D87B6801E07B6804337B61B9
:101A4C00BB69FF2B02D87B6A9B0002E07B6A083BD8
:101A5C009B003B617B691A680F213B6901FA03F318
:101A6C00DB431A40396A3B6901FA03F31A437B6979
:101A7C001A603B685B6803F08053002B00F0908089
:101A8C00564B9B69554A43F001039361534B9B6939
:101A9C0003F00103BB60BB68514A7B6A9B080233AD
:101AAC0052F82330FB607B6A03F003039B000F2288
:101ABC0002FA03F3DB43FA681340FB607B68494A84
:101ACC0093420DD07B68484A934207D07B68474AC3
:101ADC00934201D1022304E0032302E0012300E03E
:101AEC0000237A6A02F0030292009340FA681343CF
:101AFC00FB603B497B6A9B080233FA6841F8232060
:101B0C003B685B6803F48013002B06D0384B9A6853
:101B1C003749BB6913438B6006E0354B9A68BB6948
:101B2C00DB43334913408B603B685B6803F4001361
:101B3C00002B06D02E4BDA682D49BB691343CB60C2
:101B4C0006E02B4BDA68BB69DB4329491340CB60B9
:101B5C003B685B6803F40033002B06D0244B5A68B7
:101B6C002349BB6913434B6006E0214B5A68BB69A0
:101B7C00DB431F4913404B603B685B6803F48033C5
:101B8C00002B06D01A4B1A681949BB6913430B601A
:101B9C0006E0174B1A68BB69DB43154913400B6011
:101BAC007B6A01337B623B681A687B6A22FA03F317
:101BBC00002B7FF4AFAE00BF00BF2C37BD4680BCFE
:101BCC00704700BF000032100000311000002210DE
:101BDC000000211000001210000011100010024033
:101BEC000000014000080140000C014000100140C1
:101BFC000004014080B485B000AF78600B467B8058
:101C0C007B689A687B881340002B02D00123FB73FE
:101C1C0001E00023FB73FB7B18461437BD4680BCE8
:101C2C00704780B483B000AF78600B467B8013465E
:101C3C007B707B78002B03D07A887B681A6103E079
:101C4C007B881A047B681A6100BF0C37BD4680BCC8
:101C5C00704780B485B000AF78600B467B807B68A2
:101C6C00DB68FB607A88FB6813401A04FB68D94375
:101C7C007B880B401A437B681A6100BF1437BD4642
:101C8C0080BC704780B586B000AF78607B68002B55
:101C9C0001D101236CE27B681B6803F00103002B6C
:101CAC0000F08780924B5B6803F00C03042B0CD084
:101CBC008F4B5B6803F00C03082B12D18C4B5B68C9
:101CCC0003F48033B3F5803F0BD1894B1B6803F4CD
:101CDC000033002B6CD07B685B68002B68D1012330
:101CEC0046E27B685B68B3F5803F06D1804B1B688E
:101CFC007F4A43F4803313602EE07B685B68002BD3
:101D0C000CD17B4B1B687A4A23F480331360784BDD
:101D1C001B68774A23F4802313601DE07B685B68A3
:101D2C00B3F5A02F0CD1724B1B68714A43F480237E
:101D3C0013606F4B1B686E4A43F4803313600BE0E7
:101D4C006B4B1B686A4A23F480331360684B1B6827
:101D5C00674A23F4802313607B685B68002B13D0E5
:101D6C00FFF7B6FC386108E0FFF7B2FC02463B69AE
:101D7C00D31A642B01D90323FAE15D4B1B6803F4DE
:101D8C000033002BF0D014E0FFF7A2FC386108E020
:101D9C00FFF79EFC02463B69D31A642B01D903233F
:101DAC00E6E1534B1B6803F40033002BF0D100E049
:101DBC0000BF7B681B6803F00203002B63D04C4B05
:101DCC005B6803F00C03002B0BD0494B5B6803F0F2
:101DDC000C03082B1CD1464B5B6803F48033002B9F
:101DEC0016D1434B1B6803F00203002B05D07B6814
:101DFC001B69012B01D00123BAE13D4B1B6823F079
:101E0C00F8027B685B69DB00394913430B603AE0ED
:101E1C007B681B69002B20D0364B01221A60FFF720
:101E2C0057FC386108E0FFF753FC02463B69D31AB4
:101E3C00022B01D903239BE12D4B1B6803F00203FA
:101E4C00002BF0D02A4B1B6823F0F8027B685B69EF
:101E5C00DB00274913430B6015E0264B00221A6068
:101E6C00FFF736FC386108E0FFF732FC02463B69AD
:101E7C00D31A022B01D903237AE11D4B1B6803F003
:101E8C000203002BF0D17B681B6803F00803002BC6
:101E9C003AD07B689B69002B19D0174B01221A6032
:101EAC00FFF716FC386108E0FFF712FC02463B69AD
:101EBC00D31A022B01D903235AE10D4B5B6A03F0B1
:101ECC000203002BF0D0012000F09AFA1CE00A4B20
:101EDC0000221A60FFF7FCFB38610FE0FFF7F8FBFC
:101EEC0002463B69D31A022B08D9032340E100BFF9
:101EFC000010024000004242800442429E4B5B6A4A
:101F0C0003F00203002BE9D17B681B6803F0040388
:101F1C00002B00F0A6800023FB75974BDB6903F0C8
:101F2C008053002B0DD1944BDB69934A43F08053C3
:101F3C00D361914BDB6903F08053BB60BB68012319
:101F4C00FB758E4B1B6803F48073002B18D18B4BE5
:101F5C001B688A4A43F480731360FFF7B9FB38613E
:101F6C0008E0FFF7B5FB02463B69D31A642B01D995
:101F7C000323FDE0814B1B6803F48073002BF0D02E
:101F8C007B68DB68012B06D17B4B1B6A7A4A43F0DA
:101F9C00010313622DE07B68DB68002B0CD1764BC0
:101FAC001B6A754A23F001031362734B1B6A724A56
:101FBC0023F0040313621CE07B68DB68052B0CD157
:101FCC006D4B1B6A6C4A43F0040313626A4B1B6A29
:101FDC00694A43F0010313620BE0674B1B6A664AC4
:101FEC0023F001031362644B1B6A634A23F004035E
:101FFC0013627B68DB68002B15D0FFF769FB386137
:10200C000AE0FFF765FB02463B69D31A41F28832BE
:10201C00934201D90323ABE0574B1B6A03F0020335
:10202C00002BEED014E0FFF753FB38610AE0FFF70A
:10203C004FFB02463B69D31A41F28832934201D9D5
:10204C00032395E04C4B1B6A03F00203002BEED1EB
:10205C00FB7D012B05D1484BDB69474A23F08053AC
:10206C00D3617B68DB69002B00F08180424B5B689D
:10207C0003F00C03082B61D07B68DB69022B46D183
:10208C003F4B00221A60FFF723FB386108E0FFF793
:10209C001FFB02463B69D31A022B01D9032367E0CD
:1020AC00354B1B6803F00073002BF0D17B681B6A67
:1020BC00B3F5803F08D1304B5B6823F400327B686A
:1020CC009B682D4913434B602B4B5B6823F47412B4
:1020DC007B68196A7B685B6A0B43274913434B6027
:1020EC00274B01221A60FFF7F3FA386108E0FFF77B
:1020FC00EFFA02463B69D31A022B01D9032337E0CE
:10210C001D4B1B6803F00073002BF0D02FE01C4B11
:10211C0000221A60FFF7DCFA386108E0FFF7D8FA02
:10212C0002463B69D31A022B01D9032320E0124B40
:10213C001B6803F00073002BF0D118E07B68DB699F
:10214C00012B01D1012313E00B4B5B68FB60FB6897
:10215C0003F480327B681B6A9A4206D1FB6803F455
:10216C0070127B685B6A9A4201D0012300E0002365
:10217C0018461837BD4680BD001002400070004064
:10218C006000424280B584B000AF786039607B68F3
:10219C00002B01D10123D0E06A4B1B6803F007032D
:1021AC003A689A4210D9674B1B6823F007026549BD
:1021BC003B6813430B60634B1B6803F007033A68DF
:1021CC009A4201D00123B8E07B681B6803F002033C
:1021DC00002B20D07B681B6803F00403002B05D078
:1021EC00594B5B68584A43F4E06353607B681B6847
:1021FC0003F00803002B05D0534B5B68524A43F4A1
:10220C0060535360504B5B6823F0F0027B689B6813
:10221C004D4913434B607B681B6803F00103002B93
:10222C0040D07B685B68012B07D1474B1B6803F4DC
:10223C000033002B15D101237FE07B685B68022BF8
:10224C0007D1414B1B6803F00073002B09D101230C
:10225C0073E03D4B1B6803F00203002B01D10123FB
:10226C006BE0394B5B6823F003027B685B68364993
:10227C0013434B60FFF72CFAF8600AE0FFF728FADB
:10228C000246FB68D31A41F28832934201D90323E8
:10229C0053E02D4B5B6803F00C027B685B689B0082
:1022AC009A42EBD1274B1B6803F007033A689A421A
:1022BC0010D2244B1B6823F0070222493B681343BE
:1022CC000B60204B1B6803F007033A689A4201D05D
:1022DC00012332E07B681B6803F00403002B08D059
:1022EC00194B5B6823F4E0627B68DB681649134387
:1022FC004B607B681B6803F00803002B09D0124B62
:10230C005B6823F460527B681B69DB000E49134346
:10231C004B6000F021F802460B4B5B681B0903F085
:10232C000F030A49CB5C22FA03F3094A1360094BE9
:10233C001B681846FFF78AF9002318461037BD466C
:10234C0080BD00BF0020024000100240242E000877
:10235C00180000201C00002080B487B000AF0023C0
:10236C00FB600023BB6000237B6100237B600023A8
:10237C003B611E4B5B68FB60FB6803F00C03042B9A
:10238C0002D0082B03D027E0194B3B6127E0FB68F8
:10239C009B0C03F00F03174AD35C7B60FB6803F4C0
:1023AC008033002B10D0114B5B685B0C03F00103E6
:1023BC00114AD35CBB607B680D4A02FB03F2BB681D
:1023CC00B2FBF3F37B6104E07B680C4A02FB03F382
:1023DC007B617B693B6102E0054B3B6100BF3B6964
:1023EC0018461C37BD4680BC704700BF0010024029
:1023FC0000127A00342E0008442E000800093D001B
:10240C0080B485B000AF78600A4B1B680A4AA2FB07
:10241C0003235B0A7A6802FB03F3FB6000BFFB68D3
:10242C005A1EFA60002BF9D100BF00BF1437BD460D
:10243C0080BC704718000020D34D621080B582B06C
:10244C0000AF78607B68002B01D1012341E07B68F1
:10245C0093F83D30DBB2002B06D17B68002283F869
:10246C003C207868FEF794FF7B68022283F83D20BD
:10247C007B681A687B6804331946104600F056FADC
:10248C007B68012283F846207B68012283F83E207A
:10249C007B68012283F83F207B68012283F840206F
:1024AC007B68012283F841207B68012283F842205B
:1024BC007B68012283F843207B68012283F8442047
:1024CC007B68012283F845207B68012283F83D203C
:1024DC00002318460837BD4680BD000080B485B087
:1024EC0000AF78607B6893F83D30DBB2012B01D0F4
:1024FC00012335E07B68022283F83D207B681B6852
:10250C00DA687B681B6842F00102DA607B681B6842
:10251C00164A934209D07B681B68B3F1804F04D0F4
:10252C007B681B68124A934211D17B681B689B68BD
:10253C0003F00703FB60FB68062B10D07B681B685D
:10254C001A687B681B6842F001021A6007E07B681E
:10255C001B681A687B681B6842F001021A60002332
:10256C0018461437BD4680BC704700BF002C014094
:10257C000004004080B584B000AF78607B681B68B5
:10258C00DB68FB607B681B681B69BB60BB6803F086
:10259C000203002B20D0FB6803F00203002B1BD09E
:1025AC007B681B686FF002021A617B6801221A7744
:1025BC007B681B689B6903F00303002B03D07868CE
:1025CC0000F098F905E0786800F08BF9786800F075
:1025DC009AF97B6800221A77BB6803F00403002B7E
:1025EC0020D0FB6803F00403002B1BD07B681B6816
:1025FC006FF004021A617B6802221A777B681B68F1
:10260C009B6903F44073002B03D0786800F072F9D7
:10261C0005E0786800F065F9786800F074F97B687B
:10262C0000221A77BB6803F00803002B20D0FB684C
:10263C0003F00803002B1BD07B681B686FF00802AB
:10264C001A617B6804221A777B681B68DB6903F0CC
:10265C000303002B03D0786800F04CF905E0786890
:10266C0000F03FF9786800F04EF97B6800221A7789
:10267C00BB6803F01003002B20D0FB6803F01003A1
:10268C00002B1BD07B681B686FF010021A617B68F3
:10269C0008221A777B681B68DB6903F44073002BF4
:1026AC0003D0786800F026F905E0786800F019F995
:1026BC00786800F028F97B6800221A77BB6803F071
:1026CC000103002B0CD0FB6803F00103002B07D097
:1026DC007B681B686FF001021A617868FEF7BAFC20
:1026EC00BB6803F08003002B0CD0FB6803F0800365
:1026FC00002B07D07B681B686FF080021A6178682A
:10270C0000F06FFABB6803F04003002B0CD0FB68A1
:10271C0003F04003002B07D07B681B686FF040026E
:10272C001A61786800F0F8F8BB6803F02003002BFE
:10273C000CD0FB6803F02003002B07D07B681B68D0
:10274C006FF020021A61786800F042FA00BF10376F
:10275C00BD4680BD80B584B000AF78603960002381
:10276C00FB737B6893F83C30012B01D10223B4E05E
:10277C007B68012283F83C207B68022283F83D2091
:10278C007B681B689B68BB60BB6823F07703BB60EE
:10279C00BB6823F47F43BB607B681B68BA689A6094
:1027AC003B681B68B3F5005F3ED0B3F5005F00F2E9
:1027BC008780B3F5805F00F08680B3F5805F7FD8AB
:1027CC00702B1AD0702B7BD8602B50D0602B77D805
:1027DC00502B3CD0502B73D8402B58D0402B6FD85B
:1027EC00302B64D0302B6BD8202B60D0202B67D8AB
:1027FC00002B5CD0102B5AD062E07B6818683B68C9
:10280C0099683B685A683B68DB6800F06AF97B683A
:10281C001B689B68BB60BB6843F07703BB607B683D
:10282C001B68BA689A604FE07B6818683B689968C7
:10283C003B685A683B68DB6800F053F97B681B689F
:10284C009A687B681B6842F480429A603CE07B6823
:10285C0018683B6859683B68DB681A4600F0CAF890
:10286C007B681B685021184600F021F92CE07B682E
:10287C0018683B6859683B68DB681A4600F0E8F852
:10288C007B681B686021184600F011F91CE07B681E
:10289C0018683B6859683B68DB681A4600F0AAF870
:1028AC007B681B684021184600F001F90CE07B683E
:1028BC001A683B681B681946104600F0F8F803E0EC
:1028CC000123FB7300E000BF7B68012283F83D20ED
:1028DC007B68002283F83C20FB7B18461037BD46F2
:1028EC0080BD80B483B000AF786000BF0C37BD46AC
:1028FC0080BC704780B483B000AF786000BF0C37E9
:10290C00BD4680BC704780B483B000AF786000BF18
:10291C000C37BD4680BC704780B483B000AF786084
:10292C0000BF0C37BD4680BC7047000080B485B03A
:10293C0000AF786039607B681B68FB607B682B4A52
:10294C00934207D07B68B3F1804F03D07B68284A51
:10295C00934208D1FB6823F07003FB603B685B6813
:10296C00FA681343FB607B68204A934207D07B686C
:10297C00B3F1804F03D07B681D4A934208D1FB68AA
:10298C0023F44073FB603B68DB68FA681343FB601D
:10299C00FB6823F080023B685B691343FB607B6838
:1029AC00FA681A603B689A687B68DA623B681A6856
:1029BC007B689A627B680D4A934203D13B681A6923
:1029CC007B681A637B6801225A617B681B6903F080
:1029DC000103002B05D07B681B6923F001027B6887
:1029EC001A6100BF1437BD4680BC7047002C0140F3
:1029FC000004004080B487B000AFF860B9607A6022
:102A0C00FB681B6A7B61FB681B6A23F00102FB6895
:102A1C001A62FB689B693B613B6923F0F0033B61E5
:102A2C007B681B013A6913433B617B6923F00A0302
:102A3C007B617A69BB6813437B61FB683A699A6175
:102A4C00FB687A691A6200BF1C37BD4680BC7047B0
:102A5C0080B487B000AFF860B9607A60FB681B6A1D
:102A6C007B61FB681B6A23F01002FB681A62FB682F
:102A7C009B693B613B6923F470433B617B681B039F
:102A8C003A6913433B617B6923F0A0037B61BB680C
:102A9C001B017A6913437B61FB683A699A61FB6895
:102AAC007A691A6200BF1C37BD4680BC704780B47F
:102ABC0085B000AF786039607B689B68FB60FB6811
:102ACC0023F07003FB603A68FB68134343F0070381
:102ADC00FB607B68FA689A6000BF1437BD4680BC07
:102AEC00704780B487B000AFF860B9607A603B6023
:102AFC00FB689B687B617B6923F47F437B613B684C
:102B0C001A027B681A43BB6813437A6913437B61CF
:102B1C00FB687A699A6000BF1C37BD4680BC704761
:102B2C0080B485B000AF786039607B6893F83C3036
:102B3C00012B01D1022341E07B68012283F83C2068
:102B4C007B68022283F83D207B681B685B68FB6016
:102B5C007B681B689B68BB60FB6823F07003FB60A1
:102B6C003B681B68FA681343FB607B681B68FA6858
:102B7C005A607B681B68144A934209D07B681B68B7
:102B8C00B3F1804F04D07B681B68104A93420CD180
:102B9C00BB6823F08003BB603B685B68BA68134377
:102BAC00BB607B681B68BA689A607B68012283F8FB
:102BBC003D207B68002283F83C2000231846143704
:102BCC00BD4680BC704700BF002C01400004004093
:102BDC0080B483B000AF786000BF0C37BD4680BCBA
:102BEC00704780B483B000AF786000BF0C37BD462F
:102BFC0080BC7047014B1868704700BF2400002050
:102C0C0070B500260C4D0D4C641BA410A64209D1C6
:102C1C0000F0F6F800260A4D0A4C641BA410A642DC
:102C2C0005D170BD55F8043B98470136EEE755F8D1
:102C3C00043B98470136F2E7482E0008482E00085E
:102C4C00482E00084C2E0008024B0146186800F074
:102C5C005FB800BF24000020024B0146186800F04A
:102C6C000BB800BF2400002003460244934200D15D
:102C7C00704703F8011BF9E738B50546002943D026
:102C8C0051F8043C0C1F002BB8BFE41800F0AAF854
:102C9C001E4A1368104633B9636014602846BDE8B9
:102CAC00384000F0A5B8A3420AD9216862189342B3
:102CBC0001BF1A685B685218226063600460EDE71C
:102CCC001A465B680BB1A342FAD911685018A0429E
:102CDC000BD120680144501883421160DED1186872
:102CEC005B68014411605360D8E702D90C232B6058
:102CFC00D4E7206821188B4201BF19685B6809185A
:102D0C00216063605460C9E738BD00BFFC0000203F
:102D1C00F8B5CD1C25F0030508350C2D38BF0C2556
:102D2C00002D064601DBA94203D90C233360002099
:102D3C00F8BD00F057F821490A6814469CB9204F99
:102D4C003B6823B92146304600F03CF838602946F0
:102D5C00304600F037F8431C23D10C233046336047
:102D6C0000F046F8E3E723685B1B17D40B2B03D961
:102D7C0023601C44256004E06368A2420CBF0B6016
:102D8C005360304600F034F804F10B00231D20F0A2
:102D9C000700C21ACCD01B1AA350C9E7224664689C
:102DAC00CCE7C41C24F00304A042E3D0211A304623
:102DBC0000F008F80130DDD1CFE700BFFC000020A7
:102DCC000001002038B50023054D044608462B6051
:102DDC00FEF734FB431C02D12B6803B1236038BDD2
:102DEC0060010020014800F009B800BF6801002014
:102DFC00014800F004B800BF68010020704770471C
:102E0C00F8B500BFF8BC08BC9E467047F8B500BFCB
:082E1C00F8BC08BC9E4670479B
:102E24000000000000000000010203040607080976
:102E340002030405060708090A0B0C0D0E0F1010F7
:042E44000102000087
:042E4800310100084C
:042E4C000D0100086C
:102E50006400000064000000640000000500000041
:102E6000030000000200000000127A0010000000C1
:102E70000100000028000020000000000000000009
:102E80000000000000000000000000000000000042
:102E90000000000000000000000000000000000032
:102EA0000000000000000000000000000000000022
:102EB0000000000000000000000000000000000012
:102EC0000000000000000000000000000000000002
:082ED0000000000000000000FA
:04000005080015E1F9
:00000001FF
